{
  "contractName": "Assert_1",
  "abi": [
    {
      "constant": true,
      "inputs": [],
      "name": "returnTrue",
      "outputs": [
        {
          "name": "",
          "type": "bool"
        }
      ],
      "payable": false,
      "stateMutability": "pure",
      "type": "function"
    },
    {
      "constant": true,
      "inputs": [],
      "name": "returnFalse",
      "outputs": [
        {
          "name": "",
          "type": "bool"
        }
      ],
      "payable": false,
      "stateMutability": "pure",
      "type": "function"
    }
  ],
  "bytecode": "0x608060405234801561001057600080fd5b5060e38061001f6000396000f3006080604052600436106049576000357c0100000000000000000000000000000000000000000000000000000000900463ffffffff16806329c1476614604e578063f613a68714607a575b600080fd5b348015605957600080fd5b50606060a6565b604051808215151515815260200191505060405180910390f35b348015608557600080fd5b50608c60af565b604051808215151515815260200191505060405180910390f35b60006001905090565b6000809050905600a165627a7a72305820f47e5aa3f8eea5be1ee310e3b24b1d2288ad4cef39500fbe79d77e8eba5ffc220029",
  "source": "pragma solidity ^0.4.24;\n\n/* \n * Level 1: \n * Pass all the tests in TestOne.sol\n * `Truffle test`: to execute the test. \n * The script will auto compile & deploy for you.\n */\n\ncontract Assert_1 {\n  \n  // TODO\n  function returnTrue() public pure returns(bool){\n    return false; \n  }\n\n  // TODO\n  function returnFalse() public pure returns(bool){\n    return true;\n  }\n}",
  "sourcePath": "/Users/nicolezhu/Desktop/soliditykoans/contracts/Assert_1.sol",
  "compiler": {
    "name": "solc",
    "version": "0.4.24+commit.e67f0147.Emscripten.clang"
  },
  "schemaVersion": "2.0.1",
  "updatedAt": "2018-08-16T03:31:11.539Z"
}