{
  "contractName": "One",
  "abi": [
    {
      "constant": false,
      "inputs": [],
      "name": "returnOne",
      "outputs": [
        {
          "name": "",
          "type": "uint256"
        }
      ],
      "payable": false,
      "stateMutability": "nonpayable",
      "type": "function"
    }
  ],
  "bytecode": "0x6080604052348015600f57600080fd5b5060a18061001e6000396000f300608060405260043610603f576000357c0100000000000000000000000000000000000000000000000000000000900463ffffffff1680633db22b12146044575b600080fd5b348015604f57600080fd5b506056606c565b6040518082815260200191505060405180910390f35b600060019050905600a165627a7a72305820789eef14d305a5b00c53f4ad2c095f7ab6ad1434dbce30be982396d1b97a15480029",
  "source": "pragma solidity ^0.4.24;\n\n/* \n * Level 1: \n * Pass all the tests in TestOne.sol\n * Make sure to truffle migrate all changes\n */\n\ncontract One {\n  function returnOne() public returns(uint){\n    return (1);\n  }\n}",
  "sourcePath": "/Users/nicolezhu/Desktop/soliditykoans/contracts/One.sol",
  "compiler": {
    "name": "solc",
    "version": "0.4.24+commit.e67f0147.Emscripten.clang"
  },
  "schemaVersion": "2.0.1",
  "updatedAt": "2018-08-15T06:21:36.889Z"
}